:100000000C94CE030C94FF030C94FF030C94FF0399
:100010000C94FF030C94FF030C94FF030C94FF0358
:100020000C94FF030C94FF030C94FF030C94FF0348
:100030000C94FF030C94FF030C94FF030C94FF0338
:100040000C94FF030C94FF030C94FF030C94FF0328
:100050000C94510F0C94FF030C94FF030C94A70E07
:100060000C94FF030C941B0F0C94F10E0C94FF03E3
:100070000C94FF030C94FF030C94FF030C94FF03F8
:100080000C94FF030C94FF030C94FF030C94FF03E8
:100090000C94FF030C94FF030C94FF030C94FF03D8
:1000A0000C94FF030C94FF030C94FF030C94FF03C8
:1000B0000C94FF030C94FF030C94FF030C94FF03B8
:1000C0000C94FF030C94FF030C94FF030C94FF03A8
:1000D0000C94FF030C94FF030C94FF030C94FF0398
:1000E0000C94FF030C943E040C942D090C94A40F63
:1000F0000C94E1090C9446070C9416050C94BD056C
:100100000C9459040C9463090C947F040C946B09AF
:100110000C94AC090C9471040C9479040C9432097D
:100120000C9483090C94C4090C9461110C94370944
:100130000C948F090C945B090C94DA040C948304DE
:100140000C947E040C9407050C9475040C943805EB
:100150000C94DC090C94030A0C944A080C9443098F
:100160000C94D0090C9463040C94B8090C945D04AD
:100170000C944C040C942A050C9470050C94360ACB
:100180000C94E8090C9443070C9450040C946B04F1
:100190000C9477090C94E10B0C944F090C94E3092F
:1001A0000C9444040C94F9090C9448040C94A00990
:1001B0000C94F2090C9467040C9453040C944207B9
:1001C0001E6C0A0E206000010308070A08010303E1
:1001D00005070104010406030606070606060606CF
:1001E0000101060606060D090708080707090701A9
:1001F000050807090709070908070707090D08097E
:1002000008020402050802060605060604060601A1
:100210000206010906060606040504060709060784
:10022000060301030707FE141E001E000000909045
:10023000F89690F89690001C00001C00000018240E
:1002400022FF4242840810103C1008041C22221C89
:10025000C0308C4240800000100C00000C10100CCC
:10026000805C2262920C80000C101010100C0810A0
:100270001E00F00C021C6080020CF080601C041454
:100280000E14040000000000404040F840404000D0
:1002900000000C00000000708080808000000000E2
:1002A000001000C0380618040000FC02020202FC24
:1002B0000C101010100C0804FE00001C0C0202822E
:1002C000423C1018141010100C02222222DC0C10D8
:1002D0001010100C8040300804FE000404040404D4
:1002E0001C043816121212E20C1010101804F844F4
:1002F000222222C40C101010100C020202E21A0674
:1003000000001C000000DC22222222DC0C10101055
:10031000100C3C42424222FC081010100804081045
:10032000087040A0A010100800000004040890907D
:1003300090909090000000000000081010A0A040D5
:100340000804040000000C028242221C0000140079
:100350000000E01804C422121212A2720408F00C69
:1003600030404C909090889C90504C200080E09CB5
:10037000829CE08000180400000000000418FE22A7
:1003800022222222DC1C10101010100CF804020291
:10039000020204080408101010100804FE020202F1
:1003A000020204F81C10101010100804FE22222271
:1003B0002222221C101010101010FE2222222222B3
:1003C000021C000000000000F80402020242424445
:1003D000C8040810101010100804FE20202020204F
:1003E000FE1C00000000001CFE1C00000000FE0CB3
:1003F0001010100CFE804020508804021C000000E9
:1004000000040810FE0000000000001C1010101076
:100410001010FE0C30C000C0300CFE1C0000041890
:100420000400001CFE0418608000FE1C0000000494
:10043000081CF804020202020204F804081010105A
:1004400010100804FE42424242423C1C00000000E0
:100450000000F804020202020204F804081010105E
:1004600014081C10FE424242C242423C1C000000E2
:10047000000408101C22222242428C0C1010101082
:10048000100C020202FE0202020000001C0000002A
:10049000FE0000000000FE040810101008040618FA
:1004A000608000806018060000000418040000004E
:1004B0000638C000C03C023CC000C0380600000442
:1004C00018040000000418040000020C9060609002
:1004D0000C02100C000000040C1002041820C020B4
:1004E000180402000000001C00000000000282420C
:1004F000221A06021018141010101010FE02FC80B0
:100500000638C0000000041802FE80FC201C021CFB
:1005100020000000000000000000000000008080BB
:10052000808080808080020400001088484848F065
:100530000C101010081CFE10080808F01C08101001
:10054000100CF0080808100C10101008F00808082B
:1005500010FE0C101010081CF048484848700C1091
:100560001010100808FC0A0A001C0000F008080817
:1005700010F84C909090887CFE10080808F01C0041
:100580000000001CFA1C00FA807CFE8040A01008CD
:100590001C0000000C10FE1CF8100808F0100808E1
:1005A000F01C0000001C0000001CF810080808F0F7
:1005B0001C000000001CF008080808F00C101010C7
:1005C000100CF810080808F0FC081010100CF008C7
:1005D000080810F80C10101008FCF81008081C008F
:1005E00000003048484890081010100C08FE080819
:1005F000001C1010F800000000F80C101010081C6F
:10060000186080008060180000041804000018E0E2
:1006100000E018E000E018000418040004180400CA
:100620000830C0C03008100C00000C1018608000AA
:1006300080601800808C700C00000808886818081A
:10064000101814101010807C02007C80FEFC027CCC
:1006500080807C004020206040402000000000009E
:100660000000FC0404040404FC1C10101010101CF6
:10067000000020002300260029002C002F0032005B
:100680000001000003010601090180402010080458
:10069000020100000A0B02090C0D0E0807030401F9
:1006A000000000000000000000000000000000004A
:1006B0000000000000000000000000000000121117
:1006C000100000000000000000000000000000001A
:1006D00000000000000000000000220025002800AB
:1006E0002B002E003100340002010000050108013A
:1006F0000B0100002100240027002A002D003000FB
:10070000330001010000040107010A010505050588
:10071000070508080808020202020A0A0808040479
:1007200004040101010101010101030303030303A7
:100730000303040707070C0C0C0C0C0C0C0C020236
:10074000020206060606060606060B0B0B0B0B0B33
:100750000B0B0102102020080810204010204080C0
:100760000201020108040201010204081020408075
:100770008040201008040201800402018040201003
:10078000080402010804020101020408102040804C
:100790000102040810204080A40F611111241FBE23
:1007A000CFEFD1E2DEBFCDBF00E00CBF23E0A4E677
:1007B000B2E001C01D92AB33B207E1F712E0A0E056
:1007C000B2E0E6E4F7E200E00BBF02C007900D9252
:1007D000A436B107D9F713E0CDECD3E000E006C0B2
:1007E00021970109802FFE010E946E11CC3CD10798
:1007F00080E00807A9F70E941B100C9491130C9439
:10080000000090E0FC01EE5AF84F2491845F984F6D
:10081000FC018491882399F090E0880F991FFC01D6
:10082000EE50F94FA591B491FC01E852F94F859132
:1008300094918FB7F894EC91E22BEC938FBF0895CD
:100840008150823108F05AC0E82FF0E08827E45D3B
:10085000FB4F8F4F0C946E114C0450043E04440423
:1008600048047E04530459045D04630467046B0464
:10087000710475047E0479047F04830480918000F0
:100880008F77809380000895809180008F7DF9CFCD
:1008900080918000877FF5CF84B58F7784BD0895E0
:1008A00084B58F7DFBCF8091B0008F778093B000AF
:1008B00008958091B0008F7DF9CF809190008F775F
:1008C000809390000895809190008F7DF9CF809162
:1008D0009000877FF5CF8091A0008F778093A00054
:1008E00008958091A0008F7DF9CF8091A000877F2F
:1008F000F5CF809120018F7780932001089580911A
:1009000020018F7DF9CF80912001877FF5CF1F9344
:10091000CF93DF93282F30E0F901EE56F94F849101
:10092000F901EE5AF84FD491F901E45FF84FC49100
:10093000CC23A9F0162F81110E942004EC2FF0E0A7
:10094000EE0FFF1FE852F94FA591B4918FB7F894BD
:10095000EC91111108C0D095DE23DC938FBFDF919D
:10096000CF911F910895DE2BF8CF3FB7F894809177
:100970006E0290916F02A0917002B091710226B543
:10098000A89B05C02F3F19F00196A11DB11D3FBFC7
:10099000BA2FA92F982F8827BC01CD01620F711D96
:1009A000811D911D42E0660F771F881F991F4A9590
:1009B000D1F70895AF92BF92CF92DF92EF92FF925C
:1009C0000F931F93CF93DF936C017B018B01040F77
:1009D000151FEB015E01AE18BF08C017D10759F013
:1009E0006991D601ED91FC910190F081E02DC60155
:1009F0001995892B79F7C501DF91CF911F910F913F
:100A0000FF90EF90DF90CF90BF90AF900895FC01E2
:100A1000538D448D252F30E0842F90E0821B930B63
:100A2000541710F0CF96089501970895FC01918D09
:100A3000828D981761F0A28DAE0FBF2FB11D5D960C
:100A40008C91928D9F5F9F73928F90E008958FEFAE
:100A50009FEF0895FC01918D828D981731F0828D62
:100A6000E80FF11D858D90E008958FEF9FEF0895B9
:100A7000FC01918D228D892F90E0805C9F4F821B1D
:100A800091098F739927089582E792E00E943805B3
:100A900021E0892B09F420E0822F0895FC01A48D28
:100AA000A80FB92FB11DA35ABF4F2C91848D90E090
:100AB00001968F739927848FA689B7892C93A08973
:100AC000B1898C91837080648C93938D848D9813FD
:100AD00006C00288F389E02D80818F7D8083089590
:100AE000EF92FF920F931F93CF93DF93EC0181E07E
:100AF000888F9B8D8C8D98131AC0E889F989808125
:100B000085FF15C09FB7F894EE89FF896083E88957
:100B1000F98980818370806480839FBF81E090E049
:100B2000DF91CF911F910F91FF90EF900895F62ED6
:100B30000B8D10E00F5F1F4F0F731127E02E8C8D70
:100B40008E110CC00FB607FCFACFE889F9898081B5
:100B500085FFF5CFCE010E944E05F1CFEB8DEC0F56
:100B6000FD2FF11DE35AFF4FF0829FB7F8940B8FD2
:100B7000EA89FB8980818062CFCFCF93DF93EC013C
:100B8000888D8823B9F0AA89BB89E889F9898C9175
:100B900085FD03C0808186FD0DC00FB607FCF7CF31
:100BA0008C9185FFF2CF808185FFEDCFCE010E9431
:100BB0004E05E9CFDF91CF91089580E090E0892B39
:100BC00029F00E94440581110E94000080E090E01D
:100BD000892B49F080E090E0892B29F00E940000E9
:100BE00081110E94000080E090E0892B49F080E0B4
:100BF00090E0892B29F00E94000081110E940000E2
:100C000080E090E0892B49F080E090E0892B29F08A
:100C10000E94000081110C9400000895DC019B01EA
:100C20002F71332712968C91129782958695877033
:100C3000FA0194E0F695E7959A95E1F7F5E0769557
:100C40006795FA95E1F78E9F600D112480E2689F09
:100C5000B00111241696EC91169717968C91E89F87
:100C6000F00111244F705527E49FC001E59F900DBE
:100C7000F49F900D1124620F731FA3E07695679582
:100C8000AA95E1F7860F971F08950F931F93CF93AF
:100C9000DF938C01EB010E940E06FE01E770FF2737
:100CA000E657F94FE491E801AC81BD81A80FB91F67
:100CB000CC91EC2381E009F080E0DF91CF911F918E
:100CC0000F910895EF92FF920F931F93CF93DF93AD
:100CD000DC011296EC911297E6171706E1F0D8F0B6
:100CE0001396EC91E4171506B1F0A8F08901EB0119
:100CF0007C010E940E06FE01E770FF27E657F94FC0
:100D000064910330110521F168F401151105C1F05A
:100D100001301105E9F0DF91CF911F910F91FF9004
:100D2000EF90089504301105F1F00530110599F7A1
:100D3000F701A481B581A80FB91FEC91E62711C076
:100D4000F701A481B581A80FB91FEC91E62B09C06A
:100D5000F701A481B581A80FB91FCC91E62FE095CA
:100D6000EC23EC93D8CFF701A481B581A80FB91F6C
:100D7000EC91E095EBCF2F923F924F925F926F9262
:100D80007F928F929F92AF92BF92CF92DF92EF921B
:100D9000FF920F931F93CF93DF9300D000D01F9249
:100DA0001F92CDB7DEB73C016B015A013E832D8304
:100DB0001A8309831701C801841B950B4424552409
:100DC000481A590A2FEF3FEF97FD02C021E030E0AB
:100DD0003C832B8397FF2C01440C551C58864F8273
:100DE00057FE04C0C201019698878F832F813885F2
:100DF0003595279531952195310938872F838D8138
:100E00009E818C159D0528F176019101A501B60101
:100E1000C3010E9462068F809884850129813A81EE
:100E20002017310791F097FC05C03FEFE31AF30A52
:100E3000841895088B819C81080F191F9101A801C6
:100E4000B701C3010E946206E9CF9FEFC91AD90A10
:100E5000D6CF28960FB6F894DEBF0FBECDBFDF9178
:100E6000CF911F910F91FF90EF90DF90CF90BF90A7
:100E7000AF909F908F907F906F905F904F903F903A
:100E80002F900895089590E080E008958F929F92AA
:100E9000AF92BF92CF92DF92EF92FF920F931F9388
:100EA000CF93DF935A01FC01228930E0F901E45F1E
:100EB000F84FE491F0E0EE0FFF1FE852F94FA591D3
:100EC000B4912E5A384FF901249130E0FC01838906
:100ED00090E0FC01E45FF84FE491F0E0EE0FFF1FBB
:100EE000E852F94FC591D491FC01EE5AF84FE491C4
:100EF0008E2E912C10E000E0C40180959095A90100
:100F0000409550950A151B050CF0B7C0FB01E68013
:100F1000F7806701FFEFCF1ADF0AFB01D782C68295
:100F2000F701D080F8E0CF2EE880F980D7FE99C095
:100F3000E828F928F982E882ED90FC901197E22ADE
:100F4000F32A1196FC92EE92DD0CED90FC90119735
:100F5000E422F5221196FC92EE92CA94C110E4CFDD
:100F6000FB01E480F5806701FFEFCF1ADF0AFB0188
:100F7000D582C482F701D080E8E0CE2EE880F980E7
:100F8000D7FE72C0E828F928F982E882ED90FC903B
:100F90001197E22AF32A1196FC92EE92DD0CED9065
:100FA000FC901197E422F5221196FC92EE92CA94DD
:100FB000C110E4CFFB01E280F3806701FFEFCF1A9D
:100FC000DF0AFB01D382C282F701D080F8E0CF2E86
:100FD000E880F980D7FE4BC0E828F928F982E8823A
:100FE000ED90FC901197E22AF32A1196FC92EE9272
:100FF000DD0CED90FC901197E422F5221196FC9205
:10100000EE92CA94C110E4CFFB01E080F180670149
:10101000FFEFCF1ADF0AFB01D182C082F701D08037
:10102000E8E0CE2EE880F980D7FE24C0E828F92831
:10103000F982E882ED90FC901197E22AF32A11964A
:10104000FC92EE92DD0CED90FC901197E422F522DB
:101050001196FC92EE92CA94C110E4CF0F5F1F4F1D
:1010600051CFE822F92266CFE822F9228DCFE8227B
:10107000F922B4CFE822F922DBCFDF91CF911F9183
:101080000F91FF90EF90DF90CF90BF90AF909F9027
:101090008F900895EF92FF920F931F93CF93DF935A
:1010A00000D000D01F921F92CDB7DEB77C01DC01CB
:1010B00050962C9127FF7AC0F70186814781849F43
:1010C000A0011124848195816285649F9001659FB0
:1010D000300D1124280F391F3A832983228530E0EF
:1010E0002C5F3F4F249FB001259F700D349F700DE2
:1010F0001124680F791F7C836B83228530E0285F81
:101100003F4F249FB001259F700D349F700D112417
:10111000680F791F7E836D83228530E0245F3F4F07
:10112000249FB001259F700D349F700D1124860FF0
:10113000971F98878F830190F081E02D0480F581BF
:10114000E02DBE016F5F7F4FC701199560E0D701A9
:101150001B968C910E94870461E0F70186850E94AE
:10116000870460E0D7011E968C910E948704F701E6
:101170006285617084850E948704D7011A966C91FC
:101180001A9762701D968C910E948704F7018285E0
:1011900090E0019683709927828711891F3F09F09B
:1011A00032C061E083850E94870420C0022E000CBB
:1011B000330BF901EE56F94F8491F901EE5AF84FCD
:1011C0000491F901E45FF84F1491112379F0811132
:1011D0000E942004E12FF0E0EE0FFF1FE059F94FCD
:1011E000A591B491EC910E2309F066CF28960FB625
:1011F000F894DEBF0FBECDBFDF91CF911F910F914D
:10120000FF90EF900895F3848F2D0E940104111137
:1012100002C060E0D4C0EF2DF0E0EE56F94FE4914B
:10122000E150E23108F0C8C0F0E08827E55EF64FF3
:101230008F4F0C946E112D093209370943094F095C
:10124000DC095B0963096B09770983098F09A00928
:10125000AC09DC09B809C409D00984B5806884BD2B
:1012600017BDC4CF84B5806284BD18BDBFCF809147
:101270008000806880938000812F90E090938900A7
:1012800080938800B3CF809180008062809380003B
:10129000812F90E090938B0080938A00A7CF80915C
:1012A0008000886080938000812F90E090938D0073
:1012B00080938C009BCF8091B00080688093B000B9
:1012C0001093B30093CF8091B00080628093B00000
:1012D0001093B4008BCF8091900080688093900031
:1012E000812F90E090939900809398007FCF809118
:1012F0009000806280939000812F90E090939B00FB
:1013000080939A0073CF80919000886080939000C2
:10131000812F90E090939D0080939C0067CF8091F7
:10132000A00080688093A0008091A0008F7B8093B4
:10133000A000812F90E09093A9008093A80056CF41
:101340008091A00080628093A000812F90E0909314
:10135000AB008093AA004ACF8091A0008860809360
:10136000A000812F90E09093AD008093AC003ECF21
:1013700080912001806880932001812F90E09093DC
:1013800029018093280132CF8091200180628093CF
:101390002001812F90E090932B0180932A0126CF8A
:1013A00080912001886080932001812F90E09093AC
:1013B0002D0180932C011ACF61E017FF2ACF8F2DCA
:1013C000F2CE0E947C13FC01848195810C94121250
:1013D000CF93DF93EC010E94E309CE01DF91CF911F
:1013E0000C94121220E332E0FC01318320830C9430
:1013F000E309CF93DF93EC010E94F209CE01DF9164
:10140000CF910C941212CF93DF93EC0160E08B85A7
:101410000E9487048B850E94010460E08C850E94F5
:1014200087048C850E94010460E08D850E948704FA
:101430008D850E94010460E08E850E9487048E8560
:101440000E9401044E818B81489FA00111246FEFFF
:1014500070E08C819D810E948A13E881F981068069
:10146000F781E02DCE01DF91CF911994CF93DF93D7
:10147000EC0160E08A890E9487048A890E94010445
:1014800060E08B890E9487048B890E940104CE0151
:10149000DF91CF910C94030A0F931F93CF93DF93A7
:1014A000EC018AE092E0998388836A834B831986F2
:1014B000188670E0695F7F4F83E0759567958A9520
:1014C000E1F76E8350E0CA010F9624E09695879568
:1014D0002A95E1F78F83469F8001479F100D569F05
:1014E000100D1124C8010E9476119D838C83A801E0
:1014F0006FEF70E0DF91CF911F910F910C948A13E1
:101500002F923F924F925F926F927F928F929F9213
:10151000AF92BF92CF92DF92EF92FF920F931F9301
:10152000CF93DF93CDB7DEB762970FB6F894DEBFE7
:101530000FBECDBF5C013B012A013E872D874801CC
:1015400017014C2D6E2DCE0101960E944C0A83018D
:101550000E291329077011270115110509F040C044
:1015600093012E0D3F1D3A8B298BC016D10609F42D
:1015700072C07201E00EF11EA70169897A89C50166
:101580000E940E069C878B87A80170E060E0CE0168
:1015900001960E940E06988B8F87A701B301C501A3
:1015A0000E940E064F855889481B590B9A01280F37
:1015B000391F6B857C858617970778F4D5011496BB
:1015C000ED91FC91E80FF91F6D817E81260F371F89
:1015D0006081F90160830196E9CF0F5F1F4FC5CF8E
:1015E0005C864B86F12CE12CCE14DF04A1F110E0D7
:1015F00000E02016310629F1B301600F711FD501FB
:1016000012968C91129786171706C1F0B8F01396B0
:101610008C91EB85FC858E171F0681F078F0AF0169
:10162000C5010E944506282F30E0A701B801CE0170
:1016300001960E9462060F5F1F4FDBCF30E020E073
:10164000F4CFFFEFEF1AFF0A2B853C852F5F3F4F4A
:101650003C872B87C9CF31E0C31AD1088601040D1E
:10166000151D910121503109260D371DF12CE12C5A
:10167000A201B301C5010E94BB068D859E858770BE
:101680009927892B09F052C08B81982F977009F008
:101690004DC02C81280D392D311DD50113966C902C
:1016A000712C2615370508F43901ED85FE85E80F04
:1016B000F11DD5011296CC90D12CEC15FD0508F446
:1016C0006F0184017801E818F9080615170508F07C
:1016D0005BC0A801B601C5010E940E062C01A7013E
:1016E00070E060E0CE0101960E940E067C01A80128
:1016F0006D857E85C5010E940E06E81AF90A9701DC
:10170000280F391F8415950570F4AD81BE81A20F95
:10171000B31FF50124813581F901E80FF91F2C91E0
:1017200020830196ECCF0F5F1F4FCCCF840168015F
:10173000C818D9088C818C151D0431F128F1F12CC1
:10174000E12C8B818E151F04E1F0D8F08C8130E004
:1017500020E08C151D0449F040F0A601B701CE0130
:1017600001960E944506282F30E06D857E856E0D1E
:101770007F1DA801C5010E946206FFEFEF1AFF0A54
:10178000E0CF0F5F1F4FD3CFCE0101960E94E30938
:1017900062960FB6F894DEBF0FBECDBFDF91CF913A
:1017A0001F910F91FF90EF90DF90CF90BF90AF907F
:1017B0009F908F907F906F905F904F903F902F9071
:1017C00008952F923F924F925F926F927F928F92E5
:1017D0009F92AF92BF92CF92DF92EF92FF920F93C0
:1017E0001F93CF93DF93CDB7DEB76F970FB6F89403
:1017F000DEBF0FBECDBF1C01B62EDC011496ED91ED
:10180000FC916085718546E050E0CE010D960E9406
:10181000651168886394F10183859485048115813D
:10182000892B51F4D80112968C9190E02781308554
:10183000821B930B94878387F10185859685892B7D
:1018400051F4D80113968C9190E021853285821B4A
:10185000930B96878587F8016085718546E050E097
:10186000CE0101960E946511F0E2BF123BC0EB81F0
:10187000EF5F712C2301440C551C2E2F30E0388F64
:101880002F8BD1011F968D909C905097181419049E
:1018900054F41B962D913C918F89988D880D991D3C
:1018A000821793072CF4F1018389882309F4E3C09C
:1018B000D1011D96CD90DC901E97C414D504ACF1D7
:1018C00051968D919C915297860D971D52969C939F
:1018D0008E93519750961C921E921F97D10153964A
:1018E0001C92CFCF8D81B816F0F02E8190E0280F9A
:1018F000392F311DB2161306B4F429813A81232BF6
:1019000009F4B5CFE6E0F0E0E81BF90BCF018B0D51
:10191000911DB7FC9A95D8011896ED91FC91E80FAE
:10192000F91FE491A5CFE0E0A3CFF1018481958177
:1019300041855285678170850384F485E02D539637
:101940002C9153972223B9F050961C921E921F9708
:1019500052961C921E92519753961C92539716962C
:10196000EC90F12C8601040F151F9F01260F371FE5
:101970000E94BB06B3CF9F012819390921503109B4
:101980008F88988C821A930A940197FE04C02227AC
:101990003327281939092E173F073CF1D101169634
:1019A000EC90F12C8601040F151F015011099F01C5
:1019B000260F371F215031090E94BB06F101878590
:1019C000908988199909908B878723853485D1015F
:1019D0001F968D919C91509797FF41C0820F931F46
:1019E00050969C938E931F97F2CFDC0112960C9128
:1019F000129710E018141904E4F4D401A60FB71FCD
:101A0000BE8BAD8BA017B107C8F6DC0113962C91E5
:101A10002417150699F290F26017710778F67F0186
:101A2000E818F9088A019B016D897E890E94800A65
:101A3000C5CF6017710710F613962C912417150661
:101A400009F008F4BBCF9B01281939092017310789
:101A500008F0B4CF7401EE0EFF1E8A01E7CFF1014A
:101A600087859089281739070CF038CF821B930B94
:101A7000908B8787F4CFBAE0BB1219C0E6808481CF
:101A80009581678170852189328941855285420F10
:101A9000531F21E0238BF12C8301040F151F238595
:101AA0003485260F371F680D791D0E94BB06D101B2
:101AB00014968D909C90159716961C91169781E020
:101AC000182751968D919C91529719966D907C9004
:101AD0001A97680E791E1F96CD90DC905097179636
:101AE0008D919C91C80ED91EF4014084518482814D
:101AF0008C151D0471F16CF183818615170449F171
:101B000044F146E050E0B201CE0107960E94651113
:101B1000F12CE12C113019F0A6E0EA2EF12CF0E2C4
:101B2000BF123FC0D40118966D917C9146E050E001
:101B3000CE0101960E9465112B810A85060D172D95
:101B4000111D2C0D3D2D311DA301B601C4010E94B4
:101B5000BB06D1011F968D919C915097EF89F88D0E
:101B60008E0F9F1F50969C938E931F9781E090E05D
:101B70006F960FB6F894DEBF0FBECDBFDF91CF9149
:101B80001F910F91FF90EF90DF90CF90BF90AF909B
:101B90009F908F907F906F905F904F903F902F908D
:101BA00008952B2D0B2C000C330BEB858E2F90E022
:101BB0002817390774F26C8570E0860F971F281775
:101BC00039073CF64A8550E09A01295F3F4FF3E020
:101BD00035952795FA95E1F7BE1A8B2DBB0C990B1D
:101BE000EF81F885EF2B09F089C0B985BB8B289F61
:101BF000D001299FB00D389FB00D1124EB89EA9FC9
:101C00005001EB9FB00C1124F6E0AF0EB11CAB8974
:101C10008A2F90E0919581959109C816D9060CF408
:101C200098CF519541955109641675060CF491CFE2
:101C30002B8F7601F9013197FF8FEE8F8E2D8C1946
:101C4000FB898F1708F085CF2B8D21502C8B3C8979
:101C50003E3F08F075C0F5016B89639FE00DF11DF3
:101C60001124E40DF51DE491832F90E09C0143E0E5
:101C7000220F331F4A95E1F73A8F298FAE8DBF8D22
:101C80008A179B0731F4BB8D0A850850110BB230BF
:101C900010F4098D1A8D1E8A1D8A2E2F30E03D8F7B
:101CA0002C8F8D89A98DBA8D0A171B07C4F09A85D0
:101CB00090171106A4F0A301400F511FEC8DFD8D6C
:101CC00002C0F595E7958A95E2F721E030E0E0FD66
:101CD00002C030E020E0B701C4010E9462062D89F5
:101CE0003E892F5F3F4F3E8B2D8B0F5F1F4F28305C
:101CF0003105B9F63C8931503C8BA9CF10E0B0E0FA
:101D0000A0E0E12FF0E0E817F90744F43696E40D7F
:101D1000F51DE491AE0FB11D1F5FF3CF2A9F500157
:101D20002B9FB00C3A9FB00C11246A5F7F4FA60E18
:101D3000B71EFC013696E40DF51D64916B8B67CFE1
:101D40006FEFE61AF60A8FEFA81AB80A77CF1F923C
:101D50000F920FB60F9211242F933F938F939F935F
:101D6000AF93BF9380916A0290916B02A0916C0235
:101D7000B0916D023091690223E0230F2D3758F5A1
:101D80000196A11DB11D2093690280936A02909370
:101D90006B02A0936C02B0936D0280916E029091E1
:101DA0006F02A0917002B09171020196A11DB11D48
:101DB00080936E0290936F02A0937002B0937102B1
:101DC000BF91AF919F918F913F912F910F900FBE37
:101DD0000F901F90189526E8230F0296A11DB11DA4
:101DE000D2CF1F920F920FB60F9211240BB60F9203
:101DF0002F933F934F935F936F937F938F939F9313
:101E0000AF93BF93EF93FF9382E792E00E944E055A
:101E1000FF91EF91BF91AF919F918F917F916F91C2
:101E20005F914F913F912F910F900BBE0F900FBE7E
:101E30000F901F9018951F920F920FB60F921124BA
:101E40000BB60F922F938F939F93EF93FF93E09195
:101E50008202F09183028081E0918802F0918902F0
:101E600082FD1DC0908180918B028F5F8F732091C6
:101E70008C02821741F0E0918B02F0E0EE58FD4FAA
:101E8000958F80938B02FF91EF919F918F912F916E
:101E90000F900BBE0F900FBE0F901F901895808172
:101EA000F2CF1F920F920FB60F9211240BB60F9222
:101EB0002F933F934F935F936F937F938F939F9352
:101EC000AF93BF93CF93DF93EF93FF93809164021F
:101ED00090E001968170992780936402892BF9F430
:101EE000D0E0C0E08091670290916802C817D907DE
:101EF000B4F4E0916502F0916602CE01880F991F5B
:101F0000E80FF91F80819181009739F0DC01ED9194
:101F1000FC910680F781E02D19952196E3CFFF9182
:101F2000EF91DF91CF91BF91AF919F918F917F9171
:101F30006F915F914F913F912F910F900BBE0F903A
:101F40000FBE0F901F901895E2E7F2E01382128205
:101F500088EE93E0A0E0B0E084839583A683B78306
:101F600082E192E09183808385EC90E0958784877D
:101F700084EC90E09787868780EC90E0918B808B53
:101F800081EC90E0938B828B82EC90E0958B848B3C
:101F900086EC90E0978B868B118E128E138E148EAA
:101FA00040E160E283E293E00E944C0AE3E2F3E066
:101FB000128689E0838786E0848787E0858788E0CA
:101FC000868781E087878FEF808B818B8EE392E01D
:101FD000918380838DE0828B8BE0838BAFE0B3E0D5
:101FE00013961C921E92129784E292E011969C9393
:101FF0008E931596FC93EE93149716961C92169753
:1020000018961C921E9217971A961C921E92199758
:102010001C961C921E921B971E961C921E921D9738
:1020200050961C921E921F9752961C921E92519788
:1020300053961C920895789484B5826084BD84B5CB
:10204000816084BD85B5826085BD85B5816085BDB3
:1020500080916E00816080936E001092810080916B
:1020600081008260809381008091810081608093F3
:102070008100809180008160809380008091B10018
:1020800084608093B1008091B00081608093B00043
:102090008091910082608093910080919100816095
:1020A0008093910080919000816080939000809156
:1020B000A10082608093A1008091A1008160809343
:1020C000A1008091A00081608093A00080912101F7
:1020D00082608093210180912101816080932101A0
:1020E0008091200181608093200180917A0084603A
:1020F00080937A0080917A00826080937A00809148
:102100007A00816080937A0080917A008068809361
:102110007A001092C100E0918202F091830282E085
:102120008083E0917E02F0917F021082E091800234
:10213000F09181028FEC808310928A02E0918602F6
:10214000F091870286E08083E0918402F09185021D
:10215000808180618083E0918402F091850280819A
:1021600088608083E0918402F0918502808180689C
:102170008083E0918402F091850280818F7D80834D
:102180008FEF8093340380EC91E090932C03809345
:102190002B0383E293E00E94360ACFB7F894809134
:1021A000650290916602FC0150E040E02FEF3FEFA6
:1021B00060916702709168024617570764F4619155
:1021C0007191A3E063327A0741F1672B09F49A0118
:1021D0004F5F5F4FEDCF2F3F320709F061C0209175
:1021E0006702309168022F5F3F4F3093680220935F
:1021F00067026091670270916802660F771F0E9404
:102200009B12009709F042C080916702909168028A
:102210000197909368028093670281E080936F003A
:10222000CFBFC8E4D2E0F990FF2009F447C06F2D7A
:1022300082E792E00E9470056F2D8FE093E00E948C
:10224000E10B0E94B5044B015C0188ECC82ED12C37
:10225000E12CF12C0E94B504681979098A099B09BF
:10226000683E734081059105A8F3F1E0CF1AD108CB
:10227000E108F10828EE820E23E0921EA11CB11C99
:10228000C114D104E104F10429F7CDCF20916702F4
:102290003091680221503109909366028093650263
:1022A000220F331F8091650290916602280F391F1B
:1022B00083E293E0F90191838083AFCF0E94DD0533
:1022C000B0CF83E293E00C94F209FB01DC0102C081
:1022D00005900D9241505040D8F70895EE0FFF1F22
:1022E000881F8BBF0790F691E02D19940F931F93D1
:1022F000CF93DF938230910510F482E090E0E0917B
:102300003903F0913A0330E020E0B0E0A0E03097EC
:1023100099F42115310509F44AC0281B390B2430E2
:102320003105D8F58A819B816115710589F1FB0121
:1023300093838283FE0111C0408151810281138108
:1023400048175907E0F04817590799F4109761F0BA
:1023500012960C93129713961C933296CF01DF912D
:10236000CF911F910F9108950093390310933A0371
:10237000F4CF2115310551F04217530738F0A90168
:10238000DB019A01BD01DF01F801C1CFEF01F9CFF7
:1023900090933A0380933903CDCFFE01E20FF31FF0
:1023A000819391932250310939832883D7CF20918B
:1023B000370330913803232B41F4209102023091EE
:1023C00003023093380320933703209100023091A9
:1023D00001022115310541F42DB73EB740910402A9
:1023E00050910502241B350BE0913703F09138031F
:1023F000E217F307A0F42E1B3F0B2817390778F0DC
:10240000AC014E5F5F4F2417350748F04E0F5F1F3A
:102410005093380340933703819391939FCFF0E01B
:10242000E0E09CCFCF93DF930097E9F0FC01329777
:1024300013821282A0913903B0913A03ED0130E08A
:1024400020E01097A1F420813181820F931F209109
:102450003703309138032817390709F061C0F0932A
:102460003803E0933703DF91CF910895EA01CE1747
:10247000DF07E8F54A815B819E0141155105B1F7FF
:10248000E901FB83EA8349915991C40FD51FEC17E9
:10249000FD0761F4808191810296840F951FE90107
:1024A00099838883828193819B838A83F0E0E0E033
:1024B00012968D919C9113970097B9F52D913C91AF
:1024C0001197CD010296820F931F2091370330910F
:1024D00038032817390739F6309751F510923A0327
:1024E00010923903B0933803A0933703BCCFD38342
:1024F000C28340815181840F951FC817D90761F4A9
:102500004E5F5F4F88819981480F591F51834083E7
:102510008A819B81938382832115310509F0B0CF95
:10252000F0933A03E09339039ECFFD01DC01C0CF65
:1025300013821282D7CF4F925F926F927F928F92C7
:102540009F92AF92BF92CF92DF92EF92FF920F9342
:102550001F93CF93DF938C01009799F4CB01DF9108
:10256000CF911F910F91FF90EF90DF90CF90BF9090
:10257000AF909F908F907F906F905F904F900C9452
:102580007611FC01E60FF71F9C0122503109E2177A
:10259000F30708F4AEC0D901CD91DC911197C617AD
:1025A000D70720F1C530D10578F0CE010497861702
:1025B000970750F0C61BD70B2297C193D1936D9309
:1025C0007C93CF010E941212C801DF91CF911F911D
:1025D0000F91FF90EF90DF90CF90BF90AF909F90C2
:1025E0008F907F906F905F904F9008955B01AC1A31
:1025F000BD0A4C018C0E9D1EA0913903B0913A0387
:10260000512C412CF12CE12C109731F5809137039E
:10261000909138038815990509F05CC04616570655
:1026200008F058C08091000290910102009741F497
:102630008DB79EB74091040250910502841B950B03
:10264000E817F90708F055C0F0933803E093370313
:10265000F90171836083B8CF8D919C911197129687
:102660006C90129713967C901397A815B90559F59D
:102670006C0142E0C40ED11CCA14DB0420F1AC0191
:102680004A195B09DA011296159780F0628273820B
:1026900051834083D9016D937C93E114F10471F06F
:1026A000D7011396FC93EE9312978ECF22968C0F40
:1026B0009D1FF90191838083F301EFCFF0933A03DB
:1026C000E093390381CF4816590608F42C017D01A7
:1026D000D3019ACFCB010E9476117C01009749F07B
:1026E000AE01B8010E948113C8010E941212870135
:1026F0006BCF10E000E068CF81E090E0F8940C949C
:102700009113FB01DC0102C001900D924150504039
:10271000D8F70895DC0101C06D9341505040E0F7B7
:10272000089513E0CDECD3E000E006C0802FFE0159
:102730000E946E112196011DCE3CD10780E0080752
:06274000A9F7F894FFCF99
:1027460000003B03800000000000E309E8090000E8
:1027560000007005DA040705BD05380516052A05CB
:1027660000000000E10BDA04430742070000000006
:1027760000000000E1094A08030A00000000F2090F
:10278600F90946074A08360A61626364656667683E
:10279600696A6B6C6D6E6F7071727374757677782B
:0427A600797A00003C
:00000001FF
